:030000000208757E
:0C087500787FE4F6D8FD75810F0208675B
:040800008E0A8F0BC2
:10080400E4F50CF50DF50E750F01FFFEC3EF950B26
:10081400E50A6480F8EE6480985047EF9401EE6432
:100824008094805006AC06AD078016850E0C850FAB
:100834000D8C0E8D0FE50D250FFDE50C350EFC8D91
:10084400B0E4FBFA900000A3E5826464458370F78A
:100854000BBB00010ABA27ECBB10E90FBF00010E65
:0208640080AA68
:01086600226F
:0E086700AF907508008F09AE0812080080F2ED
:00000001FF
