:0A0B360000050002000800030001A2
:100B0A00E4FDFCC3ED9FEC9E5015E4FBFA0BBB0021
:0F0B1A00010ABA04F8BBFBF50DBD00010C80E425
:010B290022A9
:060ADB008B1F8A20892117
:100AE1001208F6FFAEF0AB22AA23A9241208F6FDE4
:100AF100AB1FAA20A921E5F08DF0120959AB22AA5A
:090B010023A924EE8FF00209592A
:0A0978008B168A1789188C198D1A46
:10098200E4F51BF51CE51A24FFFFE51934FFFEC34D
:10099200E51C9FEE6480F8E51B6480984003020A20
:1009A2005DE4F51DF51EC3E51A951CCFE519951BEF
:1009B200CF24FFCF34FFFEC3E51E9FEE6480F8E52F
:1009C2001D6480984003020A4FE51E2401FFE435AE
:1009D2001DFEEF25E0FFEE33AB16AA17A9188F8292
:1009E200F583120921FDACF0E51E25E0FFE51D337C
:1009F2008F82F583120921D39DEC6480F8E5F064BF
:100A02008098403BE51E25E0FFE51D33FEE92FF906
:100A1200EA3EFAC003C002C001E51E2401FFE4352C
:100A22001DFEEF25E0FFEE33FEE5182FF9E5173E38
:100A32008B22F5238924D001D002D003120ADB05D0
:100A42001EE51E60030209A8051D0209A8051CE592
:0B0A52001C6003020987051B020987D6
:010A5D002276
:100A5E0078087C007D007BFF7A0B79367E007F0A5A
:100A6E001208D0751200751305E4F514F515FB7A0E
:100A7E00007908AD13AC12120978E4F514F515C31C
:100A8E00E5159513E5126480F8E51464809850EA34
:100A9E00AF15EF25E02408F808E6F580EF25E024F1
:100AAE000AF808E6F590AF15EF25E0240CF808E6F5
:100ABE00F5A0EF25E0240EF808E6F5B07F967E004F
:0D0ACE00120B0A0515E51570B6051480B26F
:03000000020B2AC6
:0C0B2A00787FE4F6D8FD758124020A5E95
:10080000E709F608DFFA8046E709F208DFFA803EDA
:1008100088828C83E709F0A3DFFA8032E309F608C7
:10082000DFFA8078E309F208DFFA807088828C832F
:10083000E309F0A3DFFA806489828A83E0A3F608E3
:10084000DFFA805889828A83E0A3F208DFFA804CBD
:1008500080D280FA80C680D4806980F28033801094
:1008600080A680EA809A80A880DA80E280CA8033FD
:1008700089828A83ECFAE493A3C8C582C8CCC58375
:10088000CCF0A3C8C582C8CCC583CCDFE9DEE78045
:100890000D89828A83E493A3F608DFF9ECFAA9F0C4
:1008A000EDFB2289828A83ECFAE0A3C8C582C8CC1A
:1008B000C583CCF0A3C8C582C8CCC583CCDFEADE33
:1008C000E880DB89828A83E493A3F208DFF980CC95
:1008D00088F0EF60010E4E60C388F0ED2402B4048E
:1008E0000050B9F582EB2402B4040050AF23234535
:0608F00082239008507302
:1008F600BB010A89828A83E0F5F0A3E022500687CD
:10090600F009E71922BBFE07E3F5F009E31922898E
:0B091600828A83E493F5F074019322C1
:10092100BB0110E58229F582E5833AF583E0F5F014
:10093100A3E0225009E92582F886F008E622BBFEF1
:100941000AE92582F8E2F5F008E222E5832AF58337
:08095100E993F5F0A3E99322FC
:10095900BB010A89828A83F0E5F0A3F0225006F7E9
:0F09690009A7F01922BBFE06F3E5F009F31922E6
:00000001FF
